:020000040800F2
:10000000980F0020A101000843130008F30F000817
:100010003F1300083D0E00083F1E000800000000CE
:10002000000000000000000000000000411800086F
:10003000890E00080000000055160008E5190008A8
:10004000BB010008BB010008BB010008BB010008A0
:10005000BB010008BB010008BB010008BB01000890
:10006000BB010008BB010008BB010008BB01000880
:10007000BB010008BB010008BB010008BB01000870
:10008000BB010008BB010008BB010008BB01000860
:10009000BB010008BB010008BB010008BB01000850
:1000A000BB010008BB010008BB010008BB01000840
:1000B000BB010008BB010008491A0008BB01000889
:1000C000BB010008BB010008BB010008BB01000820
:1000D000BB010008BB010008791C0008BB01000837
:1000E000BB010008BB010008BB01000800F002F8DA
:1000F00000F047F80AA090E8000C82448344AAF17B
:100100000107DA4501D100F03CF8AFF2090EBAE878
:100110000F0013F0010F18BFFB1A43F0010318473B
:100120007425000094250000103A24BF78C878C1D7
:10013000FAD8520724BF30C830C144BF04680C60ED
:10014000704700000023002400250026103A28BF35
:1001500078C1FBD8520728BF30C148BF0B60704739
:10016000782900F09C80002070471FB59DE80300AF
:1001700000F056FC00F020FA1FBD10B500F085FA23
:1001800010BD00F0E8FA1146FFF7EFFF01F0FEFEA8
:1001900000F0ECFB03B4FFF7F0FF03BC00F0B2FD8E
:1001A0000948804709480047FEE7FEE7FEE7FEE70B
:1001B000FEE7FEE7FEE7FEE7FEE7FEE70448054947
:1001C000054A064B70470000E9190008ED000008D9
:1001D00098090020980F0020980B0020980B002011
:1001E0000FB4044910B503AA029800F0CFF910BC6F
:1001F0005DF814FB9008002070B50446856900681E
:10020000C10601D5302600E02026C00707D070BD0A
:10021000D4E9012130469047206A401C20626D1EBF
:10022000F6D570BD70B5044685690078C00707D162
:1002300070BDD4E9012120209047206A401C206233
:100240006D1EF6D570BD0000F0B40D46018809059D
:1002500002D5214C7C4402E01F4C7C440E3400212A
:1002600000F1240608E002F00F071209E75D42EAF8
:1002700003721B097754491C52EA0307F3D1027831
:100280000023120704D5702D06D009B102231134C2
:100290002246F0BC00F008B901231034F8E770B52D
:1002A00004460D4621461068AFF3008002462946F9
:1002B0002046BDE870400023C6E7D21D22F00703A8
:1002C000D3E90023C0E70368126843F0200303600A
:1002D0000823C3610023B7E7F42300002DE9F05F92
:1002E000894604464FF0000ADFF874B1FB44C0F8B9
:1002F00020A02046E1688847002874D0252806D031
:10030000D4E901219047206A401C2062F1E70026D1
:100310005F462046E16888472028054607DB312DE7
:1003200005D2781910F8200C08B10643F1E7B007A0
:1003300001D526F00406C4F81CA00027C4F818A0B4
:100340002A2D09D0284601F0E9FD38B304EB8708CF
:10035000303DC8F8185019E059F8041B204604EB4A
:1003600087029161E1688847012F054618D1E0694D
:10037000002820DA26F020061DE0D8F8180000EB4F
:10038000800005EB40003038C8F818002046E168CE
:100390008847054601F0C2FD0028EED1012F0AD0A2
:1003A0002E2D08D12046E16888477F1C0546022F84
:1003B00046F02006C4DBA069002803DA404246F07C
:1003C0000106A061F00701D026F010066C2D0BD0BD
:1003D000682D09D04C2D39D06A2D35D0742D35D0EB
:1003E0007A2D33D016E038E0E1682F462046884762
:1003F000B842054609D16C2F26D04FF48060E168E1
:10040000064320468847054604E06C2F1AD04FF477
:10041000807006430DB3A5F14100192802D820359C
:1004200046F400664A462946204626604E46FFF7B7
:1004300097FE80B101280BD0F61D26F0070000F1D1
:10044000080956E74020E4E78020D8E70020D6E7F7
:1004500006F104094DE7284652E7206ABDE8F09FFF
:100460008423000010B5431C02E010F8011B71B199
:100470008107FAD14FF0013202C88C1A8C4314EA7A
:10048000C211F9D0C01A0A0603D0C01E10BDC01A8E
:1004900010BD0A0401D0801E10BD0902FCD0401E10
:1004A00010BD7047704770472DE9F0470D469946DB
:1004B0009246044600F124080168880604D5E069E4
:1004C00021F01001216000E00120A84201DD471B5E
:1004D00000E00027A1697A1902EB0900081AA0615F
:1004E0002078C00602D42046FFF786FE002608E0EA
:1004F000D4E901211AF806009047206A401C761CB6
:1005000020624E45F4DB2078C0060AD52046FFF76E
:1005100073FE06E0D4E9012130209047206A401C98
:100520002062381EA7F10107F4DC07E0D4E90121BD
:1005300018F805009047206A401C2062281EA5F18B
:100540000105F3DC2046FFF76DFE2078000602D59A
:100550000220BDE8F0870120FBE7000001694A1C8A
:1005600002610878704700B58FB0CDE901310021F4
:10057000059105497944CDE9031011466846FFF716
:10058000ADFE0FB000BD0000E5FFFFFF074B70B5EB
:100590000D467B44FFF7E7FF0446284600F008F8C5
:1005A00010B14FF0FF3070BD204670BDD319000070
:1005B000007B00F08000704710B54248542100F0E5
:1005C000E5F94148542100F0E1F94048542100F098
:1005D000DDF93F493B483C4A3F4B08603D490A60D2
:1005E0003A491960531C0365481C106501200865D1
:1005F0003B48344A39A1784400F01CF920B9384806
:1006000078440A3800F0BBF937482F4A35A17844BE
:1006100000F010F920B9344878440A3800F0AFF9F6
:1006200032482A4A2FA1784400F004F920B92F4813
:1006300078440A3800F0A3F940232248DC00002166
:10064000224600F0D4F820B125487844543800F010
:1006500096F91D4822464023002100F0C8F820B139
:1006600021487844543800F08AF91848224610236B
:10067000002100F0BCF8002806D01C487844BDE8F2
:100680001040563800F07BB910BD104870B5006DB1
:1006900020F001040B4800F043F90B4800F040F94A
:1006A0000A4800F03DF909E0206D20F001052046E0
:1006B00000F036F9204600F073F82C46002CF3D1F8
:1006C00070BD00003C08002090080020E4080020D5
:1006D0001C000020200000202400002072000000E8
:1006E0008B200000770000007720000063200000CE
:1006F0000EB5CDE90001FFF7B5FE02906946012075
:10070000ABBE0EBD08B5694600900220ABBE08BD69
:100710001FB58DE8070069460520ABBE04B010BDCB
:100720001FB58DE80F0069460620ABBEF6E708B599
:10073000694600900920ABBE08BD1CB5CDE900019B
:1007400069460A20ABBE1CBD704708B569460090DB
:100750000C20ABBE08BD754600F040F9AE46050062
:100760006946534620F00700854618B020B5FFF7CC
:1007700025FDBDE820404FF000064FF000074FF088
:1007800000084FF0000B21F00701AC46ACE8C009AF
:10079000ACE8C009ACE8C009ACE8C0098D467047B8
:1007A00070B50446051F00F01FF90068002C14BF47
:1007B000446870BD002C18BFAC423CBF2046646842
:1007C000F8D301680A18AA4218BF456003D12A6805
:1007D00005461144016028684119A1421CBF6C60A4
:1007E00070BD6168696021680844286070BD70B59B
:1007F000C468A50713D0650211D4B2F5807F09D073
:10080000B2F5007F06D0B2F5806F08D1012300F168
:10081000240106E05D1E6FF07F46B54201D3012042
:1008200070BD0161C361416024F470611143C16016
:10083000002070BD2DE9F0410C46074616461046D3
:1008400000F06EF82078611C61280AD0722802D06E
:1008500077283CD102E00125002405E0022504248C
:1008600002E0082448F2020511F8010B2B2806D0FB
:10087000622809D011F8010C74280AD00BE045F069
:10088000030544F00204EFE745F0040544F00104D9
:10089000EAE744F0100438462146FFF729FF411CDF
:1008A00015D00021316171604FF40071F560F16184
:1008B0007061200704D530460222002100F00EF9B5
:1008C000306D40F0010030653046BDE8F081002019
:1008D000FBE72DE9F0410D460646104C206DC1079F
:1008E00004D0410804D020F00104F7E722460EE0CE
:1008F000542000F0C4F807000ED0206D47F001012D
:10090000084354212065384600F040F83A4629460D
:100910003046BDE8F0418DE70020D6E73C080020D6
:100920002DE9F04704464FF000094FF0FF37C56846
:10093000D4E90486A80707D0204600F07FF93046A6
:10094000FFF7E0FE002802DA3846BDE8F087280508
:1009500002D54046FFF724FF4C21204600F016F850
:10096000206D20F0010020654846EEE710B50446F2
:10097000AFF300802046BDE81040FFF70BBC10B578
:1009800000F0A6F9BDE8104000F09CB94FF000025D
:1009900000B5134694469646203922BFA0E80C5075
:1009A000A0E80C50B1F12001BFF4F7AF090728BF50
:1009B000A0E80C5048BF0CC05DF804EB890028BFCC
:1009C00040F8042B08BF704748BF20F8022B11F0F5
:1009D000804F18BF00F8012B704700000048704797
:1009E0003809002070470000004870474009002087
:1009F000704770477047704738B504460A46002074
:100A00006946AFF30080002808BF38BD0246009950
:100A1000204600F084F9012038BD012000F0D3B950
:100A2000F8B5AFF30080054600200C46102000BF4B
:100A30000646A819A0420DD9324669460020AFF3F8
:100A40000080070008BF00F0BEF90098A04218BF60
:100A50000546C419FFF7C8FF05600746F01D20F0E2
:100A600007004619284600F053F9B44208BFF8BD04
:100A7000A21B31463868BDE8F84000F050B970B5A7
:100A80000646FFF7B1FF056806F10B0020F00704EA
:100A9000B4429CBF002070BD2B466A68BAB1106892
:100AA000A04210D304F1080188423CBF506858604E
:100AB00007D35168101941601168091B0160586023
:100AC0001460101D70BD13465268002AE7D12146FC
:100AD0002846FFF791FF0028DED170BD2DE9F041D7
:100AE000044616460D464769007B80072ED03846DF
:100AF000FFF71DFE50BB3EB3012E02D0022E25D1C2
:100B000004E0204600F025F905441DE03846FFF7D3
:100B10001CFEE168002841F01001E16005DA204682
:100B200000F058F80120BDE8F081C9030BD56268D8
:100B3000E16A914200D81146A26911442269891ADA
:100B4000814200DD08460544002D01DA0220EAE773
:100B5000E16A6068E268814206D29103E06203D5EF
:100B600022F4003141F01002A6690027AE4213DCE6
:100B7000E16A814201D90B4600E0034603EB060C13
:100B80002369ACEB030CAC4506DD814201D98C46F0
:100B900000E084469C4505D1A760276042F0200014
:100BA000A5620DE0AD1BE669AE1B8142A66000D9CF
:100BB0000846C01A281A20605819606022F02000E8
:100BC00003490840E060002084F84870ABE700006B
:100BD000BFCFD7FFC16821F4001141F08001C1608F
:100BE00000218160016070472DE9F047814614467D
:100BF0000E464FF0FF383248D5685769054209D094
:100C00003846A169FFF799FD002811DB2C48C04345
:100C10000540E5602B46324649463846FFF778FDE9
:100C2000A16920F00042B21A11440028A16103D04A
:100C30002046FFF7CFFF4046BDE8F08770B5044679
:100C40000569C06A6168884200D80846E16821F4F5
:100C50002011E160C90312D5A84208D02246411BE9
:100C60002846FFF7C1FF10B14FF0FF3070BD0020E4
:100C7000E562C4E90150E06820F48030E0600020C3
:100C800070BD10B50446C06820F02000E060A16A85
:100C9000A06988420DD02046FFF7D0FFE06820F41D
:100CA000405040F01000E060A06AA0612069E0625E
:100CB000606044F24001E0688843E06010BD0000DD
:100CC00010000200002801D000F01CB8704700009E
:100CD00010B5014602A000F05DF8012010BD000033
:100CE00053494752545245443A20526564697265EB
:100CF00063743A2063616E2774206F70656E3A20CA
:100D00000000000001491820ABBEFEE726000200EB
:100D100000210160C0E901107047102070470346B0
:100D200040688C46002818BF88423CBF0346406894
:100D3000F8D318681844884207D00CF1030020F05B
:100D40000700001D411A521A0146081D0A60FFF7EC
:100D500027BD10B50146C268900703D0900607D59D
:100D6000886A0AE000F03EF801210160881E10BD8B
:100D70008B69486818440B69C01A91F848301BB158
:100D800091F84910401A10BD1103FCD50028FADD76
:100D9000401E10BD70B505460C460A2000E06D1CD3
:100DA00000F018F835B128780028F8D102E0641C6A
:100DB00000F010F814B120780028F8D1BDE8704098
:100DC0000A2000F007B810B500F010F8BDE8104098
:100DD000FFF778BF08B569468DF800000320ABBE69
:100DE00008BD0000004870473809002010B50128F0
:100DF00005D0002103A0FFF7CDFF012010BD09A100
:100E0000F8E7000053494752544D454D3A204F757D
:100E100074206F662068656170206D656D6F7279F2
:100E2000000000003A2048656170206D656D6F72AA
:100E30007920636F727275707465640000BFFEE79D
:100E400008B50121082000F017FC4FF48050ADF8E0
:100E5000000010208DF8030003208DF80200694681
:100E6000014800F029F808BD000C014070B50546A6
:100E70000C460026284600F079FC064626EA0401C6
:100E8000284600F0DFFF70BD704700EBC001C900CD
:100E90004FF0E0225161002191610521116100BFF5
:100EA0004FF0E021096901F480310029F8D00421D4
:100EB0004FF0E022116170472DE9F0410246002514
:100EC0000026002000230024002791F803C00CF026
:100ED0000F0591F803C00CF0100CBCF1000F03D00B
:100EE00091F802C04CEA050591F800C0BCF1000F72
:100EF00031D0146800202BE04FF0010C0CFA00F305
:100F0000B1F800C00CEA03069E4220D183004FF0E6
:100F10000F0C0CFA03F7BC4305FA03FC4CEA04047B
:100F200091F803C0BCF1280F06D14FF0010C0CFA68
:100F300000FCC2F814C00AE091F803C0BCF1480FED
:100F400005D14FF0010C0CFA00FCC2F810C0401C97
:100F50000828D1D31460B1F800C0BCF1FF0F34DD14
:100F6000546800202EE000F1080C4FF0010808FA48
:100F70000CF3B1F800C00CEA03069E4221D18300B5
:100F80004FF00F0C0CFA03F7BC4305FA03FC4CEAD4
:100F9000040491F803C0BCF1280F05D100F1080C3E
:100FA00008FA0CF8C2F8148091F803C0BCF1480F9D
:100FB00007D100F1080C4FF0010808FA0CF8C2F84C
:100FC0001080401C0828CED35460BDE8F081024652
:100FD000002093680B400BB1012000E00020704717
:100FE00041617047016170470AB1016100E04161F0
:100FF000704700BFFEE710B503211420FFF736FF4E
:1010000010BD10B5142000F0B1FB044604F003003D
:1010100018B90321142000F04FFC10BDF0B587B0C3
:101020000546002708210846FFF720FF00210D2074
:1010300000F008FF80210E20FFF718FF93208DF8A5
:10104000040020208DF8050006A801AB022201A9AA
:1010500000900C2000F0D6F80646262E10D1002471
:1010600007E001A8005D285501A8005D4740601C0D
:10107000C4B2042CF5DB01A8005DB84200D0BB2649
:1010800080210E2000F018FC304607B0F0BD0000B3
:1010900008B501210C2000F0EFFA1020ADF8000097
:1010A00003208DF8020010208DF8030069461C48CB
:1010B000FFF702FF2020ADF8000003208DF80200AA
:1010C00010208DF8030069461548FFF7F5FE8020D3
:1010D000ADF8000003208DF8020010208DF8030009
:1010E00069460F48FFF7E8FE4020ADF800000320F6
:1010F0008DF8020004208DF8030069460848FFF7C8
:10110000DBFE0120ADF8000003208DF80200102066
:101110008DF8030069460348FFF7CEFE08BD0000C6
:1011200000080140000C014070B588B005460C462F
:1011300008210846FFF79AFE07210D2000F082FEE5
:101140000321142000F0B8FB8DF8085007A802AB6B
:10115000012202A900900C2000F054F80646262E29
:1011600009D10798102806D19DF8080020709DF835
:101170000900607000E0BB26304608B070BD00007A
:1011800010B501211E48FFF72DFF0120FFF77DFE5E
:1011900001211B48FFF724FF0120FFF776FE012104
:1011A0001748FFF71FFF0120FFF76FFE0F210120F7
:1011B00000F048FE00BF012000F0D8FA00F0100057
:1011C0000028F8D10120FFF760FE3D21112000F03A
:1011D00039FE1E212D2000F035FE00212C2000F0CC
:1011E00031FE8D212A2000F02DFE3E212B2000F023
:1011F00029FE4021152000F025FE262010BD00000C
:10120000000C01402DE9FE4F0646884691469A465D
:10121000DDF830B0BB2002900020019000900C2E31
:1012200006D00E2E09D1122001901020009005E06A
:10123000772001903020009000E000BF00BF0198AF
:1012400040F08001022000F0FDFD80210420FFF726
:101250000DFE0021012000F0F5FD80210A2000F0A4
:101260002BFB002505E018F80510092000F0EAFD29
:101270006D1C4D45F7D33146012000F0E3FD0C2EE7
:1012800003D180210D2000F017FB042000F06EFA3E
:10129000044640F2DC5500BF042000F067FA044623
:1012A0006D1E35B104F0010018B9009820400028E7
:1012B000F2D080210D20FFF7D9FD95B3062000F074
:1012C00055FA00F01B0068BB2620029001982040D0
:1012D00000F0010008B1CC2002900C2E24D10A208D
:1012E00000F044FA04460C2000F040FA00F0070732
:1012F0002FB1601E07EBC000CBF8000002E0E00059
:10130000CBF8000004B90124122C00DD12240025C2
:1013100005E0092000F02AFA0AF805006D1CA54234
:10132000F7D301E0BB20029080210C2000F0C4FA2A
:101330000021012000F086FD0298BDE8FE8F00BF6D
:10134000FEE7704770B500240EE00021204600F053
:10135000F4F8002504E0002000F06CF9681CC5B228
:10136000802DF8DB601CC4B2082CEEDB70BD0000E1
:1013700008B50121082000F07FF914208DF8030042
:1013800003208DF802004FF48070ADF8000069462C
:101390000A48FFF791FD4FF40070ADF80000694670
:1013A0000648FFF789FD012211020448FFF71CFEE1
:1013B000012251020148FFF717FE08BD000C014051
:1013C00070B50546002419E080202041284008B16E
:1013D000012000E0002002464FF400710E48FFF7A4
:1013E00003FE012211020C48FFF7FEFD00224FF41C
:1013F00080710948FFF7F8FD601CC4B2082CE3DBDC
:10140000012211020448FFF7EFFD00224FF4807122
:101410000148FFF7E9FD70BD000C014010B5012245
:1014200051020A48FFF7E0FD012211020748FFF7C9
:10143000DBFD00224FF400710448FFF7D5FD0022C8
:101440004FF480710148FFF7CFFD10BD000C014043
:1014500010B500224FF400710648FFF7C5FD0122C8
:1014600011020448FFF7C0FD012251020148FFF7B5
:10147000BBFD10BD000C014070B5002406E0002546
:1014800000E06D1CB5F57A7FFBD3641CB4F57A7F60
:10149000F5D3FFF76DFFAE2000F0BCF8D52000F0CB
:1014A000B9F8802000F0B6F8A82000F0B3F83F208B
:1014B00000F0B0F8D32000F0ADF8002000F0AAF85A
:1014C000402000F0A7F8A12000F0A4F8C82000F008
:1014D000A1F8DA2000F09EF8122000F09BF881209D
:1014E00000F098F8CF2000F095F8D92000F092F89D
:1014F000F12000F08FF8DB2000F08CF8302000F0B5
:1015000089F8A42000F086F8A62000F083F88D204A
:1015100000F080F8142000F07DF8AF2000F07AF899
:10152000FFF710FF70BD10B50246012000E05043E8
:101530000B1EA1F10101FAD110BD70B505460C4694
:1015400045F0B00000F066F8102141EA141000F0F8
:1015500061F804F00F0000F05DF870BD2DE9F04176
:1015600005460E461746721ED206110E6A1E520618
:10157000100EFFF7E2FF002409E0A7F12001134A53
:1015800002EB0111085D00F055F8601CC4B2082C94
:10159000F3DB721ED206110E6A1E012303EB420218
:1015A000D0B2FFF7CAFF00240BE0A7F12001074AE1
:1015B00002EB011204F10801505C00F03BF8601CE2
:1015C000C4B2082CF1DBBDE8F08100005C2000080B
:1015D0002DE9F04780460E4617461D46002415E0CB
:1015E000281B411E0A20FFF79EFFB7FBF0F00A21DF
:1015F000B0FBF1F201FB120000F130093019C1B269
:101600004A464046FFF7AAFF601CC4B2AC42E7DB83
:10161000BDE8F08710B50446FFF700FF7820FFF71C
:10162000CFFE0020FFF7CCFE2046FFF7C9FEFFF7F4
:101630000FFF10BD10B50446FFF7F0FE7820FFF74E
:10164000BFFE4020FFF7BCFE2046FFF7B9FEFFF7C4
:10165000FFFE10BD7047000029B1064AD26902435F
:10166000044BDA6104E0034AD2698243014BDA6138
:10167000704700000010024029B1064A92690243F7
:10168000044B9A6104E0034A92698243014B9A61D8
:10169000704700000010024030B5002100220024F5
:1016A00000232D4D6D6805F00C0121B1042905D0F2
:1016B000082923D105E0294D056022E0274D05606A
:1016C0001FE0254D6D6805F47012234D6D6805F41B
:1016D0008034022505EB92421CB9214D554305602B
:1016E0000BE01D4D6D6805F400351DB11C4D5543D3
:1016F000056002E0194D5543056002E0174D056095
:1017000000BF00BF144D6D6805F0F0010909154DCB
:101710006B5C0568DD4045600F4D6D6805F4E06168
:10172000090A104D6B5C4568DD4085600A4D6D68A7
:1017300005F46051C90A0B4D6B5C4568DD40C5601E
:10174000054D6D6805F44041890B074D6B5CC5681C
:10175000B5FBF3F5056130BD0010024000127A00C0
:1017600000093D0000000020100000202DE9F0419C
:101770000646002520213148FFF732FC0220FFF702
:1017800084FB10212D48FFF72BFC0220FFF77DFB87
:101790007E2000EA460040F08007082420E007F0A1
:1017A000800020B180212548FFF71CFC03E0802148
:1017B0002248FFF715FC0220FFF767FB20211F4896
:1017C000FFF710FC0220FFF760FB7806070E2021D0
:1017D0001A48FFF705FC0220FFF757FB601EC4B252
:1017E000002CDCDC082416E020211448FFF7FAFB6B
:1017F0000220FFF74AFB6806050E40210F48FFF75D
:10180000E6FB054320210D48FFF7EAFB0220FFF726
:101810003CFB601EC4B2002CE6DC20210748FFF729
:10182000E1FB0220FFF731FB10210448FFF7DAFB50
:101830000220FFF72AFB2846BDE8F081000801409E
:101840007047000000B589B001210846FFF704FF8A
:1018500001210420FFF710FF0120ADF8040018203B
:101860008DF8070003208DF8060001A91148FFF745
:1018700023FB4720ADF8180044F61F60ADF81C00AC
:1018800006A94FF0804000F067F96020ADF808002D
:101890000120ADF80A0040F2DC50ADF80E0002A9BC
:1018A0004FF0804000F00AF90121880700F0E9F8C4
:1018B00009B000BD0008014070B505460C46002681
:1018C0002846FFF753FF064646EA0401284600F083
:1018D000B9FA70BD10B500F001F810BD0CB50020CC
:1018E000019000903348006840F48030314908602E
:1018F00000BF3048006800F4003000900198401CA0
:101900000190009818B90198B0F5A06FF1D129485D
:10191000006800F4003010B10120009001E00020C8
:1019200000900098012843D12348006840F010003F
:10193000214908600846006820F003000860084656
:10194000006840F0020008601A4840681949486081
:101950000846406848600846406840F48060486037
:101960000846406820F47C1048600846406840F40F
:10197000E81048600846006840F08070086000BFCA
:101980000C48006800F000700028F9D00948406851
:1019900020F00300074948600846406840F0020014
:1019A000486000BF0348406800F00C000828F9D1E7
:1019B0000CBD00000010024000200240042808D1A5
:1019C0004FF0E021096941F004014FF0E02211617C
:1019D00007E04FF0E021096921F004014FF0E02217
:1019E000116170477047000010B51348006840F05F
:1019F00001001149086008464068104908400E4936
:101A00004860084600680E4908400B4908600846CF
:101A1000006820F4802008600846406820F4FE003A
:101A200048604FF41F008860FFF754FF4FF00060DC
:101A30000449086010BD0000001002400000FFF8DB
:101A4000FFFFF6FE08ED00E010B50121094800F0A7
:101A500024F868B10848008840F40040064908802E
:101A60000121044800F00AF80021024800F009F8BA
:101A700010BD0000000800401A000020CA43028286
:101A8000704721B1028842F00102028004E002881E
:101A90004FF6FE731A400280704730B502460020B0
:101AA00000230024158A05EA0103958905EA01044B
:101AB00013B10CB1012000E0002030BD70B500244E
:101AC00000220023058C4FF6FE7635400584028CFB
:101AD0008388048B4FF68F752C40B51E2C400D88E3
:101AE0002C43751E2A400D892A434D882A43144DE4
:101AF000A8420BD0134DA84208D0134DA84205D0E0
:101B0000124DA84202D0124DA84213D14FF6F775DC
:101B10002A404D892A434FF6FB752A408D882A4377
:101B20004FF6FF652B404FF6FF552B408D892B4319
:101B3000CD892B4383800483CD888586028470BD44
:101B4000002C0140003401400040014000440140AD
:101B50000048014081847047002202881D4B984252
:101B60000ED01D4B98420BD0B0F1804F08D01B4BCC
:101B7000984205D01A4B984202D01A4B984204D191
:101B80004FF68F731A404B881A43174B984207D071
:101B9000164B984204D04FF6FF431A40CB881A43A5
:101BA00002808B8883850B8803850A4B98420BD073
:101BB000094B984208D00E4B984205D00D4B9842E5
:101BC00002D00D4B984201D10B7A03860123838208
:101BD00070470000002C0140003401400004004028
:101BE00000080040000C00400010004000140040BD
:101BF00000400140004401400048014000B585B06C
:101C0000012144F20400FFF737FD4FF40070ADF8F6
:101C1000100018208DF8130003208DF8120004A97D
:101C20001348FFF749F94FF48060ADF81000042025
:101C30008DF8130004A90E48FFF73EF94FF4E13088
:101C400000900020ADF80400ADF80600ADF80800E3
:101C5000ADF80C000C20ADF80A006946054800F00C
:101C600079F80121034800F03FF805B000BD0000FD
:101C7000000801400038014010B5002440F2255111
:101C8000154800F03DF8F8B1134800F0CFF8C4B2A1
:101C90001248008800F40040B0B910480088B0F540
:101CA000806F12DA00210E48FFF754FF0B480088BE
:101CB00018B901210A48FFF7E4FE08490888411CC9
:101CC000064A118007490C5405E00448008840F496
:101CD00000400249088010BD004400401A00002066
:101CE000000800403C00002021B1828942F40052EB
:101CF000828104E082894DF6FF731A408281704729
:101D000070B50246002400230025002040F66A1624
:101D1000B14200D100BFC1F3421501F01F030126FB
:101D200006FA03F3012D02D19689334006E0022D15
:101D300002D1168A334001E0968A33400C12012604
:101D400006FA04F41688344013B10CB1012000E007
:101D5000002070BD2DE9F04786B005460E460024F0
:101D6000A24600BFA1460027B08900B100BF2F46A0
:101D70002C8A4CF6FF700440F08804432C82AC8916
:101D80004EF6F3100440B088318908437189084346
:101D90000443AC81AC8A4FF6FF400440B089044351
:101DA000AC8201A8FFF778FC1F48874202D1DDF81A
:101DB00010A001E0DDF80CA0A88900F4004040B1BB
:101DC0000AEBCA0000EB0A1031684900B0FBF1F8D9
:101DD00007E00AEBCA0000EB0A1031688900B0FB8B
:101DE000F1F86420B8FBF0F004012009642101FB44
:101DF0001089A88900F4004040B1322000EBC900EE
:101E0000B0FBF1F000F00700044308E0322000EBE3
:101E100009106421B0FBF1F000F00F0004432C81A5
:101E200006B0BDE8F0870000003801400146888810
:101E3000C0F308007047C1F308028280704700BFFA
:101E4000FEE700002DE9F04106460D46202132480C
:101E5000FFF7C6F810213048FFF7C2F87E2000EAED
:101E60004607082420E007F0800020B180212A489E
:101E7000FFF7B8F803E080212748FFF7B1F8022008
:101E8000FFF703F820212448FFF7ACF80220FEF703
:101E9000FCFF7806070E20211F48FFF7A1F802205B
:101EA000FEF7F3FF601EC4B2002CDCDC082420E047
:101EB00005F0800020B180211748FFF793F803E078
:101EC00080211548FFF78CF80220FEF7DEFF202165
:101ED0001148FFF787F80220FEF7D7FF6806050EC6
:101EE00020210D48FFF77CF80220FEF7CEFF601E90
:101EF000C4B2002CDCDC20210748FFF773F8022075
:101F0000FEF7C3FF10210448FFF76CF80220FEF72C
:101F1000BCFFBDE8F08100000008014030380A280D
:101F200001D20120704700207047000010B5044620
:101F30006FF00400FFF742FDE11704EB5171C1F3AC
:101F4000C701074A11701046007800EB4001C1EB51
:101F5000C0104FF6FF7101EAC0000249088010BDB1
:101F6000140000201600002070B504460D46E1B2B2
:101F70000548FFF760FF00BF0348008800F08000BD
:101F80000028F9D0204670BD003801404820FFF7F6
:101F9000CDFFFFF757FCFEF753FFFFF76DFAFFF792
:101FA00077F8FFF72BFE052343F2390201210220C7
:101FB000FFF70EFB1CA0FEF713F934E01E49522078
:101FC000FFF7B2F80546262D06D0FFF7D9F8FFF740
:101FD00012F8FFF716F826E018A0FEF701F9002422
:101FE00006E01548065D314617A0FEF7F9F8641CB7
:101FF000022CF6D31048FFF711F80546262D00D025
:1020000011E013A0FEF7ECF8002406E00A48065D94
:1020100031460DA0FEF7E4F8641C042CF6D305A0AD
:10202000FEF7DEF800BFC9E74D4652433532322095
:10203000546573740D0A000028000020BFA8B5C4C1
:10204000C0E0D0CD3A00000025303258000000003A
:10205000BFA8D0F2C1D0BAC5A3BA000000000000EA
:10206000000000000000000000000000000000F878
:1020700000000000000000333000000000100C06DB
:10208000100C0600000000000000000040C0784076
:10209000C0784000043F04043F040400007088FC42
:1020A00008300000001820FF211E0000F008F0009A
:1020B000E018000000211C031E211E0000F008880B
:1020C000700000001E2123241927211010160E0075
:1020D000000000000000000000000000000000E020
:1020E0001804020000000007182040000002041835
:1020F000E00000000040201807000000404080F091
:10210000804040000202010F01020200000000F0C6
:10211000000000000101011F01010100000000009A
:102120000000000080B0700000000000000000000F
:102130000000000000010101010101010000000098
:10214000000000000030300000000000000000002F
:1021500080601804006018060100000000E010080C
:102160000810E000000F102020100F00001010F8E1
:10217000000000000020203F202000000070080820
:1021800008887000003028242221300000300888A0
:10219000884830000018202020110E000000C020C8
:1021A00010F8000000070424243F240000F80888E9
:1021B000880808000019212020110E0000E0108876
:1021C00088180000000F112020110E0000380808A8
:1021D000C83808000000003F0000000000708808B8
:1021E00008887000001C222121221C0000E0100839
:1021F0000810E0000000312222110F00000000C092
:10220000C00000000000003030000000000000802E
:10221000000000000000806000000000000080401E
:102220002010080000010204081020004040404037
:10223000404040000404040404040400000810208A
:1022400040800000002010080402010000704808CF
:102250000808F0000000003036010000C030C82837
:10226000E810E0000718272423140B000000C038F2
:10227000E0000000203C23020227382008F888886C
:1022800088700000203F202020110E00C030080878
:1022900008083800071820202010080008F808084F
:1022A0000810E000203F202020100F0008F8888848
:1022B000E8081000203F20202320180008F8888814
:1022C000E8081000203F200003000000C03008088C
:1022D0000838000007182020221E020008F8080015
:1022E0000008F808203F210101213F20000808F8DC
:1022F000080800000020203F2020000000000808FF
:10230000F8080800C08080807F00000008F888C0BE
:1023100028180800203F20012638200008F808006F
:1023200000000000203F20202020300008F8F800A6
:10233000F8F80800203F003F003F200008F830C0B8
:102340000008F808203F200007183F00E0100808A8
:102350000810E0000F10202020100F0008F80808D7
:102360000808F000203F210101010000E0100808EA
:102370000810E0000F18242438504F0008F888880F
:1023800088887000203F2000030C302000708808EF
:10239000080838000038202121221C00180808F8FD
:1023A000080818000000203F2000000008F808007E
:1023B0000008F808001F202020201F00087888004F
:1023C00000C83808000007380E010000F80800F8BF
:1023D0000008F800033C0700073C03000818688069
:1023E0008068180820302C03032C30200838C800DF
:1023F000C83808000000203F20000000100808082E
:10240000C83808002038262120201800000000FECF
:10241000020202000000007F40404000000C30C07B
:1024200000000000000000010638C00000020202A7
:10243000FE000000004040407F0000000000040259
:102440000202040000000000000000000000000084
:102450000000000080808080808080800002020474
:10246000000000000000000000000000000080806C
:10247000808000000019242222223F2008F80080DA
:1024800080000000003F112020110E00000000809D
:1024900080800000000E112020201100000000802C
:1024A0008088F800000E112020103F20000080805E
:1024B00080800000001F222222221300008080F072
:1024C000888888180020203F20200000000080809D
:1024D00080808000006B94949493600008F80080E2
:1024E00080800000203F210000203F20008098983D
:1024F000000000000020203F20200000000000809D
:102500009898000000C08080807F000008F80000DC
:1025100080808000203F24022D302000000808F831
:10252000000000000020203F2020000080808080EC
:1025300080808000203F20003F20003F808000807E
:1025400080800000203F210000203F20000080808C
:1025500080800000001F202020201F00808000803D
:102560008000000080FFA12020110E0000000080EC
:1025700080808000000E112020A0FF8080808000DD
:102580008080800020203F2120000100000080800A
:10259000808080000033242424241900008080E0FF
:1025A000808000000000001F2020000080800000CC
:1025B00000808000001F202020103F2080808000AD
:1025C0000080808000010E300806010080800080BD
:1025D000008080800F300C030C300F0000808000E2
:1025E000808080000020312E0E312000808080000D
:1025F0000080808080818E701806010000808080BD
:10260000808080000021302C22213000000000005A
:10261000807C020200000000003F404000000000FB
:10262000FF00000000000000FF0000000002027C2C
:10263000800000000040403F000000000006010153
:1026400002020404000000000000000030313233B8
:1026500034353637383941424344454640305800D6
:102660003031323334353637383961626364656608
:102670004030780004000008000000000000000264
:1026800000010000103A7474003A7474003A7474D3
:1026900000000000B4260008000000202800000010
:1026A00028010008DC26000828000020700F000028
:1026B00044010008000000000102030401020304B9
:1026C00006070809020406080000000000000000D8
:0C26D000000000000000000000000000FE
:04000005080000ED02
:00000001FF
